{
  "contractName": "CalendarFactory",
  "abi": [
    {
      "inputs": [
        {
          "internalType": "address",
          "name": "_origin",
          "type": "address"
        }
      ],
      "stateMutability": "nonpayable",
      "type": "constructor"
    },
    {
      "anonymous": false,
      "inputs": [
        {
          "indexed": false,
          "internalType": "address",
          "name": "username",
          "type": "address"
        },
        {
          "indexed": false,
          "internalType": "uint256",
          "name": "id",
          "type": "uint256"
        }
      ],
      "name": "CalendarAdded",
      "type": "event"
    },
    {
      "inputs": [
        {
          "internalType": "uint256",
          "name": "",
          "type": "uint256"
        }
      ],
      "name": "calendars",
      "outputs": [
        {
          "internalType": "contract Calendar",
          "name": "",
          "type": "address"
        }
      ],
      "stateMutability": "view",
      "type": "function",
      "constant": true
    },
    {
      "inputs": [],
      "name": "origin",
      "outputs": [
        {
          "internalType": "address",
          "name": "",
          "type": "address"
        }
      ],
      "stateMutability": "view",
      "type": "function",
      "constant": true
    },
    {
      "inputs": [],
      "name": "create",
      "outputs": [],
      "stateMutability": "nonpayable",
      "type": "function"
    }
  ],
  "bytecode": "0x608060405234801561001057600080fd5b506040516106a83803806106a88339818101604052810190610032919061008d565b806000806101000a81548173ffffffffffffffffffffffffffffffffffffffff021916908373ffffffffffffffffffffffffffffffffffffffff160217905550506100ff565b600081519050610087816100e8565b92915050565b60006020828403121561009f57600080fd5b60006100ad84828501610078565b91505092915050565b60006100c1826100c8565b9050919050565b600073ffffffffffffffffffffffffffffffffffffffff82169050919050565b6100f1816100b6565b81146100fc57600080fd5b50565b61059a8061010e6000396000f3fe608060405234801561001057600080fd5b50600436106100415760003560e01c8063515e52f714610046578063938b5f3214610076578063efc81a8c14610094575b600080fd5b610060600480360381019061005b9190610326565b61009e565b60405161006d9190610400565b60405180910390f35b61007e6100dd565b60405161008b91906103bc565b60405180910390f35b61009c610101565b005b600181815481106100ae57600080fd5b906000526020600020016000915054906101000a900473ffffffffffffffffffffffffffffffffffffffff1681565b60008054906101000a900473ffffffffffffffffffffffffffffffffffffffff1681565b600061012c60008054906101000a900473ffffffffffffffffffffffffffffffffffffffff16610256565b905060026000815480929190610141906104d5565b91905055508073ffffffffffffffffffffffffffffffffffffffff1663b792e6ec600254336040518363ffffffff1660e01b815260040161018392919061043b565b600060405180830381600087803b15801561019d57600080fd5b505af11580156101b1573d6000803e3d6000fd5b505050506001819080600181540180825580915050600190039060005260206000200160009091909190916101000a81548173ffffffffffffffffffffffffffffffffffffffff021916908373ffffffffffffffffffffffffffffffffffffffff1602179055507ff4c564605d88ab0592af8f3398e721cff8fe07f5d24c16f1e01bb0902c87b5d83360025460405161024b9291906103d7565b60405180910390a150565b6000763d602d80600a3d3981f3363d3d373d3d3d363d730000008260601b60e81c176000526e5af43d82803e903d91602b57fd5bf38260781b17602052603760096000f09050600073ffffffffffffffffffffffffffffffffffffffff168173ffffffffffffffffffffffffffffffffffffffff16141561030c576040517f08c379a00000000000000000000000000000000000000000000000000000000081526004016103039061041b565b60405180910390fd5b919050565b6000813590506103208161054d565b92915050565b60006020828403121561033857600080fd5b600061034684828501610311565b91505092915050565b61035881610475565b82525050565b610367816104b1565b82525050565b600061037a601683610464565b91507f455243313136373a20637265617465206661696c6564000000000000000000006000830152602082019050919050565b6103b6816104a7565b82525050565b60006020820190506103d1600083018461034f565b92915050565b60006040820190506103ec600083018561034f565b6103f960208301846103ad565b9392505050565b6000602082019050610415600083018461035e565b92915050565b600060208201905081810360008301526104348161036d565b9050919050565b600060408201905061045060008301856103ad565b61045d602083018461034f565b9392505050565b600082825260208201905092915050565b600061048082610487565b9050919050565b600073ffffffffffffffffffffffffffffffffffffffff82169050919050565b6000819050919050565b60006104bc826104c3565b9050919050565b60006104ce82610487565b9050919050565b60006104e0826104a7565b91507fffffffffffffffffffffffffffffffffffffffffffffffffffffffffffffffff8214156105135761051261051e565b5b600182019050919050565b7f4e487b7100000000000000000000000000000000000000000000000000000000600052601160045260246000fd5b610556816104a7565b811461056157600080fd5b5056fea26469706673582212204bdf95f9058edc9f3d02d27d86fc0aa6e5afbe77018f7e98e1544c7b1f542b2964736f6c63430008000033",
  "immutableReferences": {},
  "source": "// SPDX-License-Identifier: MIT\npragma solidity >=0.8.0 <0.9.0;\n\nimport \"./Calendar.sol\";\nimport { Clones } from \"@openzeppelin/contracts/proxy/Clones.sol\";\n\ncontract CalendarFactory {\n  event CalendarAdded(address username, uint id);\n\n  address public origin;\n  Calendar[] public calendars;\n  uint private cloneCount;\n\n  constructor(address _origin) {\n    origin = _origin;\n  }\n\n  function create() external {\n    Calendar calendar = Calendar(Clones.clone(origin));\n    cloneCount++;\n    calendar.init(\n      cloneCount,\n      msg.sender\n    );\n    calendars.push(calendar);\n    emit CalendarAdded(msg.sender, cloneCount);\n  }\n}\n",
  "sourcePath": "/Users/autumn/Proj/Au/EventBlock/truffle/contracts/CalendarFactory.sol",
  "compiler": {
    "name": "solc",
    "version": "0.8.0+commit.c7dfd78e.Emscripten.clang"
  },
  "schemaVersion": "3.4.12",
  "updatedAt": "2023-03-05T00:26:42.994Z",
  "networkType": "ethereum",
  "devdoc": {
    "kind": "dev",
    "methods": {},
    "version": 1
  },
  "userdoc": {
    "kind": "user",
    "methods": {},
    "version": 1
  }
}