{
  "contractName": "Calendar",
  "abi": [
    {
      "anonymous": false,
      "inputs": [
        {
          "indexed": false,
          "internalType": "address",
          "name": "username",
          "type": "address"
        },
        {
          "indexed": false,
          "internalType": "uint256",
          "name": "eventID",
          "type": "uint256"
        },
        {
          "indexed": false,
          "internalType": "string",
          "name": "title",
          "type": "string"
        }
      ],
      "name": "AddEvent",
      "type": "event"
    },
    {
      "anonymous": false,
      "inputs": [
        {
          "indexed": false,
          "internalType": "address",
          "name": "username",
          "type": "address"
        },
        {
          "indexed": false,
          "internalType": "uint256",
          "name": "eventID",
          "type": "uint256"
        }
      ],
      "name": "DeleteEvent",
      "type": "event"
    },
    {
      "anonymous": false,
      "inputs": [
        {
          "indexed": false,
          "internalType": "address",
          "name": "username",
          "type": "address"
        },
        {
          "indexed": false,
          "internalType": "uint256",
          "name": "eventID",
          "type": "uint256"
        },
        {
          "indexed": false,
          "internalType": "string",
          "name": "eventTitle",
          "type": "string"
        }
      ],
      "name": "UpdateEvent",
      "type": "event"
    },
    {
      "anonymous": false,
      "inputs": [
        {
          "indexed": false,
          "internalType": "address",
          "name": "username",
          "type": "address"
        },
        {
          "indexed": false,
          "internalType": "uint256",
          "name": "calendarID",
          "type": "uint256"
        },
        {
          "indexed": false,
          "internalType": "string",
          "name": "title",
          "type": "string"
        }
      ],
      "name": "UpdateTitle",
      "type": "event"
    },
    {
      "inputs": [],
      "name": "creator",
      "outputs": [
        {
          "internalType": "address",
          "name": "",
          "type": "address"
        }
      ],
      "stateMutability": "view",
      "type": "function",
      "constant": true
    },
    {
      "inputs": [],
      "name": "id",
      "outputs": [
        {
          "internalType": "uint256",
          "name": "",
          "type": "uint256"
        }
      ],
      "stateMutability": "view",
      "type": "function",
      "constant": true
    },
    {
      "inputs": [],
      "name": "title",
      "outputs": [
        {
          "internalType": "string",
          "name": "",
          "type": "string"
        }
      ],
      "stateMutability": "view",
      "type": "function",
      "constant": true
    },
    {
      "inputs": [
        {
          "internalType": "uint256",
          "name": "_id",
          "type": "uint256"
        },
        {
          "internalType": "address",
          "name": "_creator",
          "type": "address"
        }
      ],
      "name": "init",
      "outputs": [],
      "stateMutability": "nonpayable",
      "type": "function"
    },
    {
      "inputs": [
        {
          "internalType": "string",
          "name": "_title",
          "type": "string"
        }
      ],
      "name": "updateTitle",
      "outputs": [],
      "stateMutability": "nonpayable",
      "type": "function"
    },
    {
      "inputs": [
        {
          "internalType": "string",
          "name": "eventTitle",
          "type": "string"
        },
        {
          "internalType": "uint256",
          "name": "startTime",
          "type": "uint256"
        },
        {
          "internalType": "uint256",
          "name": "endTime",
          "type": "uint256"
        },
        {
          "internalType": "uint256",
          "name": "year",
          "type": "uint256"
        },
        {
          "internalType": "uint256",
          "name": "month",
          "type": "uint256"
        }
      ],
      "name": "addEvent",
      "outputs": [],
      "stateMutability": "nonpayable",
      "type": "function"
    },
    {
      "inputs": [],
      "name": "getAllEvents",
      "outputs": [
        {
          "components": [
            {
              "internalType": "uint256",
              "name": "id",
              "type": "uint256"
            },
            {
              "internalType": "address",
              "name": "username",
              "type": "address"
            },
            {
              "internalType": "string",
              "name": "title",
              "type": "string"
            },
            {
              "internalType": "uint256",
              "name": "startTime",
              "type": "uint256"
            },
            {
              "internalType": "uint256",
              "name": "endTime",
              "type": "uint256"
            },
            {
              "internalType": "bool",
              "name": "isDeleted",
              "type": "bool"
            }
          ],
          "internalType": "struct Calendar.Event[]",
          "name": "",
          "type": "tuple[]"
        }
      ],
      "stateMutability": "view",
      "type": "function",
      "constant": true
    },
    {
      "inputs": [],
      "name": "getMyEvents",
      "outputs": [
        {
          "components": [
            {
              "internalType": "uint256",
              "name": "id",
              "type": "uint256"
            },
            {
              "internalType": "address",
              "name": "username",
              "type": "address"
            },
            {
              "internalType": "string",
              "name": "title",
              "type": "string"
            },
            {
              "internalType": "uint256",
              "name": "startTime",
              "type": "uint256"
            },
            {
              "internalType": "uint256",
              "name": "endTime",
              "type": "uint256"
            },
            {
              "internalType": "bool",
              "name": "isDeleted",
              "type": "bool"
            }
          ],
          "internalType": "struct Calendar.Event[]",
          "name": "",
          "type": "tuple[]"
        }
      ],
      "stateMutability": "view",
      "type": "function",
      "constant": true
    },
    {
      "inputs": [
        {
          "internalType": "uint256",
          "name": "eventID",
          "type": "uint256"
        },
        {
          "internalType": "string",
          "name": "eventTitle",
          "type": "string"
        }
      ],
      "name": "updateEvent",
      "outputs": [],
      "stateMutability": "nonpayable",
      "type": "function"
    },
    {
      "inputs": [
        {
          "internalType": "uint256",
          "name": "eventID",
          "type": "uint256"
        }
      ],
      "name": "deleteEvent",
      "outputs": [],
      "stateMutability": "nonpayable",
      "type": "function"
    }
  ],
  "bytecode": "0x608060405234801561001057600080fd5b506118ec806100206000396000f3fe608060405234801561001057600080fd5b506004361061009e5760003560e01c8063a8c6d99211610066578063a8c6d99214610135578063af640d0f14610151578063b792e6ec1461016f578063c27a500d1461018b578063f8749a58146101a95761009e565b806302d05d3f146100a357806333d9b7cd146100c15780633548124b146100dd57806337fb13b0146100fb5780634a79d50c14610117575b600080fd5b6100ab6101c5565b6040516100b891906114ea565b60405180910390f35b6100db60048036038101906100d69190611247565b6101eb565b005b6100e56102f2565b6040516100f291906115aa565b60405180910390f35b61011560048036038101906101109190611112565b610757565b005b61011f6107af565b60405161012c91906115cc565b60405180910390f35b61014f600480360381019061014a9190611153565b61083d565b005b610159610a3c565b60405161016691906115ee565b60405180910390f35b6101896004803603810190610184919061120b565b610a42565b005b610193610a8e565b6040516101a091906115aa565b60405180910390f35b6101c360048036038101906101be91906111e2565b610e87565b005b600260009054906101000a900473ffffffffffffffffffffffffffffffffffffffff1681565b3373ffffffffffffffffffffffffffffffffffffffff166004600084815260200190815260200160002060009054906101000a900473ffffffffffffffffffffffffffffffffffffffff1673ffffffffffffffffffffffffffffffffffffffff1614156102ee57806003838154811061028d577f4e487b7100000000000000000000000000000000000000000000000000000000600052603260045260246000fd5b906000526020600020906006020160020190805190602001906102b1929190610f8f565b507f8b502c36c620d5b1c13ebb2de03f1a79b384745a05df01d327c6434a1afe2fd73383836040516102e59392919061152e565b60405180910390a15b5050565b6060600060038054905067ffffffffffffffff81111561033b577f4e487b7100000000000000000000000000000000000000000000000000000000600052604160045260246000fd5b60405190808252806020026020018201604052801561037457816020015b610361611015565b8152602001906001900390816103595790505b5090506000805b60038054905081101561062b573373ffffffffffffffffffffffffffffffffffffffff166004600083815260200190815260200160002060009054906101000a900473ffffffffffffffffffffffffffffffffffffffff1673ffffffffffffffffffffffffffffffffffffffff1614801561044c57506003818154811061042b577f4e487b7100000000000000000000000000000000000000000000000000000000600052603260045260246000fd5b906000526020600020906006020160050160009054906101000a900460ff16155b15610618576003818154811061048b577f4e487b7100000000000000000000000000000000000000000000000000000000600052603260045260246000fd5b90600052602060002090600602016040518060c0016040529081600082015481526020016001820160009054906101000a900473ffffffffffffffffffffffffffffffffffffffff1673ffffffffffffffffffffffffffffffffffffffff1673ffffffffffffffffffffffffffffffffffffffff1681526020016002820180546105149061176f565b80601f01602080910402602001604051908101604052809291908181526020018280546105409061176f565b801561058d5780601f106105625761010080835404028352916020019161058d565b820191906000526020600020905b81548152906001019060200180831161057057829003601f168201915b5050505050815260200160038201548152602001600482015481526020016005820160009054906101000a900460ff1615151515815250508383815181106105fe577f4e487b7100000000000000000000000000000000000000000000000000000000600052603260045260246000fd5b60200260200101819052508180610614906117a1565b9250505b8080610623906117a1565b91505061037b565b5060008167ffffffffffffffff81111561066e577f4e487b7100000000000000000000000000000000000000000000000000000000600052604160045260246000fd5b6040519080825280602002602001820160405280156106a757816020015b610694611015565b81526020019060019003908161068c5790505b50905060005b8281101561074d578381815181106106ee577f4e487b7100000000000000000000000000000000000000000000000000000000600052603260045260246000fd5b602002602001015182828151811061072f577f4e487b7100000000000000000000000000000000000000000000000000000000600052603260045260246000fd5b60200260200101819052508080610745906117a1565b9150506106ad565b5080935050505090565b806001908051906020019061076d929190610f8f565b507f315cd06a81982f78866072d1290b5e029dae6d4a89e51528f8bdc2ef0c677da93360005460016040516107a49392919061156c565b60405180910390a150565b600180546107bc9061176f565b80601f01602080910402602001604051908101604052809291908181526020018280546107e89061176f565b80156108355780601f1061080a57610100808354040283529160200191610835565b820191906000526020600020905b81548152906001019060200180831161081857829003601f168201915b505050505081565b6000600380549050905060036040518060c001604052808381526020013373ffffffffffffffffffffffffffffffffffffffff1681526020018881526020018781526020018681526020016000151581525090806001815401808255809150506001900390600052602060002090600602016000909190919091506000820151816000015560208201518160010160006101000a81548173ffffffffffffffffffffffffffffffffffffffff021916908373ffffffffffffffffffffffffffffffffffffffff1602179055506040820151816002019080519060200190610925929190610f8f565b50606082015181600301556080820151816004015560a08201518160050160006101000a81548160ff0219169083151502179055505050600560008481526020019081526020016000206000838152602001908152602001600020819080600181540180825580915050600190039060005260206000200160009091909190915055336004600083815260200190815260200160002060006101000a81548173ffffffffffffffffffffffffffffffffffffffff021916908373ffffffffffffffffffffffffffffffffffffffff1602179055507f0c9b7bfc24d30f8463579949dcbac9178318a273fe0970854416da6c6e2d2153338288604051610a2c9392919061152e565b60405180910390a1505050505050565b60005481565b8160008190555080600260006101000a81548173ffffffffffffffffffffffffffffffffffffffff021916908373ffffffffffffffffffffffffffffffffffffffff1602179055505050565b6060600060038054905067ffffffffffffffff811115610ad7577f4e487b7100000000000000000000000000000000000000000000000000000000600052604160045260246000fd5b604051908082528060200260200182016040528015610b1057816020015b610afd611015565b815260200190600190039081610af55790505b5090506000805b600380549050811015610d5b5760038181548110610b5e577f4e487b7100000000000000000000000000000000000000000000000000000000600052603260045260246000fd5b906000526020600020906006020160050160009054906101000a900460ff16610d485760038181548110610bbb577f4e487b7100000000000000000000000000000000000000000000000000000000600052603260045260246000fd5b90600052602060002090600602016040518060c0016040529081600082015481526020016001820160009054906101000a900473ffffffffffffffffffffffffffffffffffffffff1673ffffffffffffffffffffffffffffffffffffffff1673ffffffffffffffffffffffffffffffffffffffff168152602001600282018054610c449061176f565b80601f0160208091040260200160405190810160405280929190818152602001828054610c709061176f565b8015610cbd5780601f10610c9257610100808354040283529160200191610cbd565b820191906000526020600020905b815481529060010190602001808311610ca057829003601f168201915b5050505050815260200160038201548152602001600482015481526020016005820160009054906101000a900460ff161515151581525050838381518110610d2e577f4e487b7100000000000000000000000000000000000000000000000000000000600052603260045260246000fd5b60200260200101819052508180610d44906117a1565b9250505b8080610d53906117a1565b915050610b17565b5060008167ffffffffffffffff811115610d9e577f4e487b7100000000000000000000000000000000000000000000000000000000600052604160045260246000fd5b604051908082528060200260200182016040528015610dd757816020015b610dc4611015565b815260200190600190039081610dbc5790505b50905060005b82811015610e7d57838181518110610e1e577f4e487b7100000000000000000000000000000000000000000000000000000000600052603260045260246000fd5b6020026020010151828281518110610e5f577f4e487b7100000000000000000000000000000000000000000000000000000000600052603260045260246000fd5b60200260200101819052508080610e75906117a1565b915050610ddd565b5080935050505090565b3373ffffffffffffffffffffffffffffffffffffffff166004600083815260200190815260200160002060009054906101000a900473ffffffffffffffffffffffffffffffffffffffff1673ffffffffffffffffffffffffffffffffffffffff161415610f8c57600160038281548110610f2a577f4e487b7100000000000000000000000000000000000000000000000000000000600052603260045260246000fd5b906000526020600020906006020160050160006101000a81548160ff0219169083151502179055507f9948fc8b5dca1924319555f24b64d575999952f4d6df382ce6f1952fb63b1a2a3382604051610f83929190611505565b60405180910390a15b50565b828054610f9b9061176f565b90600052602060002090601f016020900481019282610fbd5760008555611004565b82601f10610fd657805160ff1916838001178555611004565b82800160010185558215611004579182015b82811115611003578251825591602001919060010190610fe8565b5b5090506110119190611063565b5090565b6040518060c0016040528060008152602001600073ffffffffffffffffffffffffffffffffffffffff1681526020016060815260200160008152602001600081526020016000151581525090565b5b8082111561107c576000816000905550600101611064565b5090565b600061109361108e8461163a565b611609565b9050828152602081018484840111156110ab57600080fd5b6110b684828561172d565b509392505050565b6000813590506110cd81611888565b92915050565b600082601f8301126110e457600080fd5b81356110f4848260208601611080565b91505092915050565b60008135905061110c8161189f565b92915050565b60006020828403121561112457600080fd5b600082013567ffffffffffffffff81111561113e57600080fd5b61114a848285016110d3565b91505092915050565b600080600080600060a0868803121561116b57600080fd5b600086013567ffffffffffffffff81111561118557600080fd5b611191888289016110d3565b95505060206111a2888289016110fd565b94505060406111b3888289016110fd565b93505060606111c4888289016110fd565b92505060806111d5888289016110fd565b9150509295509295909350565b6000602082840312156111f457600080fd5b6000611202848285016110fd565b91505092915050565b6000806040838503121561121e57600080fd5b600061122c858286016110fd565b925050602061123d858286016110be565b9150509250929050565b6000806040838503121561125a57600080fd5b6000611268858286016110fd565b925050602083013567ffffffffffffffff81111561128557600080fd5b611291858286016110d3565b9150509250929050565b60006112a78383611443565b905092915050565b6112b8816116e5565b82525050565b6112c7816116e5565b82525050565b60006112d88261168f565b6112e281856116b2565b9350836020820285016112f48561166a565b8060005b858110156113305784840389528151611311858261129b565b945061131c836116a5565b925060208a019950506001810190506112f8565b50829750879550505050505092915050565b61134b816116f7565b82525050565b600061135c8261169a565b61136681856116c3565b935061137681856020860161173c565b61137f81611877565b840191505092915050565b60006113958261169a565b61139f81856116d4565b93506113af81856020860161173c565b6113b881611877565b840191505092915050565b600081546113d08161176f565b6113da81866116d4565b945060018216600081146113f557600181146114075761143a565b60ff198316865260208601935061143a565b6114108561167a565b60005b8381101561143257815481890152600182019150602081019050611413565b808801955050505b50505092915050565b600060c08301600083015161145b60008601826114cc565b50602083015161146e60208601826112af565b50604083015184820360408601526114868282611351565b915050606083015161149b60608601826114cc565b5060808301516114ae60808601826114cc565b5060a08301516114c160a0860182611342565b508091505092915050565b6114d581611723565b82525050565b6114e481611723565b82525050565b60006020820190506114ff60008301846112be565b92915050565b600060408201905061151a60008301856112be565b61152760208301846114db565b9392505050565b600060608201905061154360008301866112be565b61155060208301856114db565b8181036040830152611562818461138a565b9050949350505050565b600060608201905061158160008301866112be565b61158e60208301856114db565b81810360408301526115a081846113c3565b9050949350505050565b600060208201905081810360008301526115c481846112cd565b905092915050565b600060208201905081810360008301526115e6818461138a565b905092915050565b600060208201905061160360008301846114db565b92915050565b6000604051905081810181811067ffffffffffffffff821117156116305761162f611848565b5b8060405250919050565b600067ffffffffffffffff82111561165557611654611848565b5b601f19601f8301169050602081019050919050565b6000819050602082019050919050565b60008190508160005260206000209050919050565b600081519050919050565b600081519050919050565b6000602082019050919050565b600082825260208201905092915050565b600082825260208201905092915050565b600082825260208201905092915050565b60006116f082611703565b9050919050565b60008115159050919050565b600073ffffffffffffffffffffffffffffffffffffffff82169050919050565b6000819050919050565b82818337600083830152505050565b60005b8381101561175a57808201518184015260208101905061173f565b83811115611769576000848401525b50505050565b6000600282049050600182168061178757607f821691505b6020821081141561179b5761179a611819565b5b50919050565b60006117ac82611723565b91507fffffffffffffffffffffffffffffffffffffffffffffffffffffffffffffffff8214156117df576117de6117ea565b5b600182019050919050565b7f4e487b7100000000000000000000000000000000000000000000000000000000600052601160045260246000fd5b7f4e487b7100000000000000000000000000000000000000000000000000000000600052602260045260246000fd5b7f4e487b7100000000000000000000000000000000000000000000000000000000600052604160045260246000fd5b6000601f19601f8301169050919050565b611891816116e5565b811461189c57600080fd5b50565b6118a881611723565b81146118b357600080fd5b5056fea264697066735822122060845e33d1b34c8ac426da1223c3a087da1932137d668f9244b0a385919d470a64736f6c63430008000033",
  "immutableReferences": {},
  "source": "// SPDX-License-Identifier: MIT\npragma solidity >=0.8.0 <0.9.0;\n\ncontract Calendar {\n  event UpdateTitle(address username, uint calendarID, string title);\n  event AddEvent(address username, uint eventID, string title);\n  event UpdateEvent(address username, uint eventID, string eventTitle);\n  event DeleteEvent(address username, uint eventID);\n\n  uint public id;\n  string public title;\n  address public creator;\n\n  function init(uint _id, address _creator) external {\n    id = _id;\n    creator = _creator;\n  }\n\n  function updateTitle(string memory _title) external {\n    title = _title;\n    emit UpdateTitle(msg.sender, id, title);\n  }\n\n  struct Event {\n    uint id;\n    address username;\n    string title;\n    uint startTime;\n    uint endTime;\n    bool isDeleted;\n  }\n\n  Event[] private events;\n\n  mapping(uint => address) eventCreatorIndex;\n  mapping(uint => mapping(uint => uint[])) monthEventsIndex;\n\n  function addEvent(string memory eventTitle, uint startTime, uint endTime, uint year, uint month) external {\n    uint eventID = events.length;\n    events.push(Event(eventID, msg.sender, eventTitle, startTime, endTime, false));\n    monthEventsIndex[year][month].push(eventID);\n    eventCreatorIndex[eventID] = msg.sender;\n    emit AddEvent(msg.sender, eventID, eventTitle);\n  }\n\n  function getAllEvents() external view returns (Event[] memory) {\n    Event[] memory tmp = new Event[](events.length);\n\n    uint counter = 0;\n    for(uint i=0; i<events.length; i++) {\n      if(!events[i].isDeleted) {\n        tmp[counter] = events[i];\n        counter++;\n      }\n    }\n\n    Event[] memory result = new Event[](counter);\n\n    for(uint i=0; i<counter; i++) {\n      result[i] = tmp[i];\n    }\n    return result;\n  }\n\n  function getMyEvents() external view returns (Event[] memory) {\n    Event[] memory tmp = new Event[](events.length);\n\n    uint counter = 0;\n    for(uint i=0; i<events.length; i++) {\n      if(eventCreatorIndex[i] == msg.sender && !events[i].isDeleted) {\n        tmp[counter] = events[i];\n        counter++;\n      }\n    }\n\n    Event[] memory result = new Event[](counter);\n\n    for(uint i=0; i<counter; i++) {\n      result[i] = tmp[i];\n    }\n    return result;\n  }\n\n  function updateEvent(uint eventID, string memory eventTitle) external {\n    if(eventCreatorIndex[eventID] == msg.sender) {\n      events[eventID].title = eventTitle;\n      emit UpdateEvent(msg.sender, eventID, eventTitle);\n    }\n  }\n\n  function deleteEvent(uint eventID) external {\n    if(eventCreatorIndex[eventID] == msg.sender) {\n      events[eventID].isDeleted = true;\n      emit DeleteEvent(msg.sender, eventID);\n    }\n  }\n}\n",
  "sourcePath": "/Users/autumn/Proj/Au/EventBlock/truffle/contracts/Calendar.sol",
  "compiler": {
    "name": "solc",
    "version": "0.8.0+commit.c7dfd78e.Emscripten.clang"
  },
  "schemaVersion": "3.4.12",
  "updatedAt": "2023-03-05T00:26:42.986Z",
  "networkType": "ethereum",
  "devdoc": {
    "kind": "dev",
    "methods": {},
    "version": 1
  },
  "userdoc": {
    "kind": "user",
    "methods": {},
    "version": 1
  }
}